{
  "_format": "hh3-artifact-1",
  "contractName": "UserAccounts",
  "sourceName": "contracts/UserAccounts.sol",
  "abi": [
    {
      "anonymous": false,
      "inputs": [
        {
          "indexed": false,
          "internalType": "string",
          "name": "id",
          "type": "string"
        },
        {
          "indexed": false,
          "internalType": "string",
          "name": "companyId",
          "type": "string"
        },
        {
          "indexed": false,
          "internalType": "string",
          "name": "name",
          "type": "string"
        },
        {
          "indexed": false,
          "internalType": "string",
          "name": "homeAddress",
          "type": "string"
        },
        {
          "indexed": false,
          "internalType": "string",
          "name": "district",
          "type": "string"
        },
        {
          "indexed": false,
          "internalType": "string",
          "name": "contactNumber",
          "type": "string"
        }
      ],
      "name": "AnimalFoodRegistered",
      "type": "event"
    },
    {
      "anonymous": false,
      "inputs": [
        {
          "indexed": false,
          "internalType": "string",
          "name": "id",
          "type": "string"
        },
        {
          "indexed": false,
          "internalType": "string",
          "name": "companyId",
          "type": "string"
        },
        {
          "indexed": false,
          "internalType": "string",
          "name": "name",
          "type": "string"
        },
        {
          "indexed": false,
          "internalType": "string",
          "name": "homeAddress",
          "type": "string"
        },
        {
          "indexed": false,
          "internalType": "string",
          "name": "district",
          "type": "string"
        },
        {
          "indexed": false,
          "internalType": "string",
          "name": "contactNumber",
          "type": "string"
        }
      ],
      "name": "AnimalFoodUpdated",
      "type": "event"
    },
    {
      "anonymous": false,
      "inputs": [
        {
          "indexed": false,
          "internalType": "string",
          "name": "id",
          "type": "string"
        },
        {
          "indexed": false,
          "internalType": "string",
          "name": "companyId",
          "type": "string"
        },
        {
          "indexed": false,
          "internalType": "string",
          "name": "name",
          "type": "string"
        },
        {
          "indexed": false,
          "internalType": "string",
          "name": "homeAddress",
          "type": "string"
        },
        {
          "indexed": false,
          "internalType": "string",
          "name": "district",
          "type": "string"
        },
        {
          "indexed": false,
          "internalType": "string",
          "name": "contactNumber",
          "type": "string"
        }
      ],
      "name": "BrewerRegistered",
      "type": "event"
    },
    {
      "anonymous": false,
      "inputs": [
        {
          "indexed": false,
          "internalType": "string",
          "name": "id",
          "type": "string"
        },
        {
          "indexed": false,
          "internalType": "string",
          "name": "companyId",
          "type": "string"
        },
        {
          "indexed": false,
          "internalType": "string",
          "name": "name",
          "type": "string"
        },
        {
          "indexed": false,
          "internalType": "string",
          "name": "homeAddress",
          "type": "string"
        },
        {
          "indexed": false,
          "internalType": "string",
          "name": "district",
          "type": "string"
        },
        {
          "indexed": false,
          "internalType": "string",
          "name": "contactNumber",
          "type": "string"
        }
      ],
      "name": "BrewerUpdated",
      "type": "event"
    },
    {
      "anonymous": false,
      "inputs": [
        {
          "indexed": false,
          "internalType": "string",
          "name": "id",
          "type": "string"
        },
        {
          "indexed": false,
          "internalType": "string",
          "name": "nic",
          "type": "string"
        },
        {
          "indexed": false,
          "internalType": "string",
          "name": "fullName",
          "type": "string"
        },
        {
          "indexed": false,
          "internalType": "string",
          "name": "district",
          "type": "string"
        }
      ],
      "name": "CollectorRegistered",
      "type": "event"
    },
    {
      "anonymous": false,
      "inputs": [
        {
          "indexed": false,
          "internalType": "string",
          "name": "id",
          "type": "string"
        },
        {
          "indexed": false,
          "internalType": "string",
          "name": "nic",
          "type": "string"
        },
        {
          "indexed": false,
          "internalType": "string",
          "name": "fullName",
          "type": "string"
        },
        {
          "indexed": false,
          "internalType": "string",
          "name": "district",
          "type": "string"
        }
      ],
      "name": "CollectorUpdated",
      "type": "event"
    },
    {
      "anonymous": false,
      "inputs": [
        {
          "indexed": false,
          "internalType": "string",
          "name": "id",
          "type": "string"
        },
        {
          "indexed": false,
          "internalType": "string",
          "name": "companyId",
          "type": "string"
        },
        {
          "indexed": false,
          "internalType": "string",
          "name": "name",
          "type": "string"
        },
        {
          "indexed": false,
          "internalType": "string",
          "name": "homeAddress",
          "type": "string"
        },
        {
          "indexed": false,
          "internalType": "string",
          "name": "district",
          "type": "string"
        },
        {
          "indexed": false,
          "internalType": "string",
          "name": "contactNumber",
          "type": "string"
        }
      ],
      "name": "ExporterRegistered",
      "type": "event"
    },
    {
      "anonymous": false,
      "inputs": [
        {
          "indexed": false,
          "internalType": "string",
          "name": "id",
          "type": "string"
        },
        {
          "indexed": false,
          "internalType": "string",
          "name": "companyId",
          "type": "string"
        },
        {
          "indexed": false,
          "internalType": "string",
          "name": "name",
          "type": "string"
        },
        {
          "indexed": false,
          "internalType": "string",
          "name": "homeAddress",
          "type": "string"
        },
        {
          "indexed": false,
          "internalType": "string",
          "name": "district",
          "type": "string"
        },
        {
          "indexed": false,
          "internalType": "string",
          "name": "contactNumber",
          "type": "string"
        }
      ],
      "name": "ExporterUpdated",
      "type": "event"
    },
    {
      "anonymous": false,
      "inputs": [
        {
          "indexed": false,
          "internalType": "string",
          "name": "id",
          "type": "string"
        },
        {
          "indexed": false,
          "internalType": "string",
          "name": "nic",
          "type": "string"
        },
        {
          "indexed": false,
          "internalType": "string",
          "name": "fullName",
          "type": "string"
        },
        {
          "indexed": false,
          "internalType": "string",
          "name": "district",
          "type": "string"
        },
        {
          "indexed": false,
          "internalType": "uint256",
          "name": "totalPaddyFieldArea",
          "type": "uint256"
        }
      ],
      "name": "FarmerRegistered",
      "type": "event"
    },
    {
      "anonymous": false,
      "inputs": [
        {
          "indexed": false,
          "internalType": "string",
          "name": "id",
          "type": "string"
        },
        {
          "indexed": false,
          "internalType": "string",
          "name": "nic",
          "type": "string"
        },
        {
          "indexed": false,
          "internalType": "string",
          "name": "fullName",
          "type": "string"
        },
        {
          "indexed": false,
          "internalType": "string",
          "name": "district",
          "type": "string"
        },
        {
          "indexed": false,
          "internalType": "uint256",
          "name": "totalPaddyFieldArea",
          "type": "uint256"
        }
      ],
      "name": "FarmerUpdated",
      "type": "event"
    },
    {
      "anonymous": false,
      "inputs": [
        {
          "indexed": false,
          "internalType": "string",
          "name": "id",
          "type": "string"
        },
        {
          "indexed": false,
          "internalType": "string",
          "name": "companyRegisterNumber",
          "type": "string"
        },
        {
          "indexed": false,
          "internalType": "string",
          "name": "companyName",
          "type": "string"
        },
        {
          "indexed": false,
          "internalType": "string",
          "name": "homeAddress",
          "type": "string"
        },
        {
          "indexed": false,
          "internalType": "string",
          "name": "district",
          "type": "string"
        },
        {
          "indexed": false,
          "internalType": "string",
          "name": "contactNumber",
          "type": "string"
        }
      ],
      "name": "MillerRegistered",
      "type": "event"
    },
    {
      "anonymous": false,
      "inputs": [
        {
          "indexed": false,
          "internalType": "string",
          "name": "id",
          "type": "string"
        },
        {
          "indexed": false,
          "internalType": "string",
          "name": "companyRegisterNumber",
          "type": "string"
        },
        {
          "indexed": false,
          "internalType": "string",
          "name": "companyName",
          "type": "string"
        },
        {
          "indexed": false,
          "internalType": "string",
          "name": "homeAddress",
          "type": "string"
        },
        {
          "indexed": false,
          "internalType": "string",
          "name": "district",
          "type": "string"
        },
        {
          "indexed": false,
          "internalType": "string",
          "name": "contactNumber",
          "type": "string"
        }
      ],
      "name": "MillerUpdated",
      "type": "event"
    },
    {
      "anonymous": false,
      "inputs": [
        {
          "indexed": false,
          "internalType": "string",
          "name": "id",
          "type": "string"
        },
        {
          "indexed": false,
          "internalType": "string",
          "name": "name",
          "type": "string"
        },
        {
          "indexed": false,
          "internalType": "string",
          "name": "district",
          "type": "string"
        }
      ],
      "name": "RetailerRegistered",
      "type": "event"
    },
    {
      "anonymous": false,
      "inputs": [
        {
          "indexed": false,
          "internalType": "string",
          "name": "id",
          "type": "string"
        },
        {
          "indexed": false,
          "internalType": "string",
          "name": "name",
          "type": "string"
        },
        {
          "indexed": false,
          "internalType": "string",
          "name": "district",
          "type": "string"
        }
      ],
      "name": "RetailerUpdated",
      "type": "event"
    },
    {
      "anonymous": false,
      "inputs": [
        {
          "indexed": false,
          "internalType": "string",
          "name": "id",
          "type": "string"
        },
        {
          "indexed": false,
          "internalType": "string",
          "name": "companyRegisterNumber",
          "type": "string"
        },
        {
          "indexed": false,
          "internalType": "string",
          "name": "companyName",
          "type": "string"
        },
        {
          "indexed": false,
          "internalType": "string",
          "name": "homeAddress",
          "type": "string"
        },
        {
          "indexed": false,
          "internalType": "string",
          "name": "district",
          "type": "string"
        },
        {
          "indexed": false,
          "internalType": "string",
          "name": "contactNumber",
          "type": "string"
        }
      ],
      "name": "WholesalerRegistered",
      "type": "event"
    },
    {
      "anonymous": false,
      "inputs": [
        {
          "indexed": false,
          "internalType": "string",
          "name": "id",
          "type": "string"
        },
        {
          "indexed": false,
          "internalType": "string",
          "name": "companyRegisterNumber",
          "type": "string"
        },
        {
          "indexed": false,
          "internalType": "string",
          "name": "companyName",
          "type": "string"
        },
        {
          "indexed": false,
          "internalType": "string",
          "name": "homeAddress",
          "type": "string"
        },
        {
          "indexed": false,
          "internalType": "string",
          "name": "district",
          "type": "string"
        },
        {
          "indexed": false,
          "internalType": "string",
          "name": "contactNumber",
          "type": "string"
        }
      ],
      "name": "WholesalerUpdated",
      "type": "event"
    },
    {
      "inputs": [
        {
          "internalType": "uint256",
          "name": "",
          "type": "uint256"
        }
      ],
      "name": "animalFoodIds",
      "outputs": [
        {
          "internalType": "string",
          "name": "",
          "type": "string"
        }
      ],
      "stateMutability": "view",
      "type": "function"
    },
    {
      "inputs": [
        {
          "internalType": "string",
          "name": "",
          "type": "string"
        }
      ],
      "name": "animalFoods",
      "outputs": [
        {
          "internalType": "string",
          "name": "id",
          "type": "string"
        },
        {
          "internalType": "string",
          "name": "companyId",
          "type": "string"
        },
        {
          "internalType": "string",
          "name": "name",
          "type": "string"
        },
        {
          "internalType": "string",
          "name": "homeAddress",
          "type": "string"
        },
        {
          "internalType": "string",
          "name": "district",
          "type": "string"
        },
        {
          "internalType": "string",
          "name": "contactNumber",
          "type": "string"
        }
      ],
      "stateMutability": "view",
      "type": "function"
    },
    {
      "inputs": [
        {
          "internalType": "uint256",
          "name": "",
          "type": "uint256"
        }
      ],
      "name": "brewerIds",
      "outputs": [
        {
          "internalType": "string",
          "name": "",
          "type": "string"
        }
      ],
      "stateMutability": "view",
      "type": "function"
    },
    {
      "inputs": [
        {
          "internalType": "string",
          "name": "",
          "type": "string"
        }
      ],
      "name": "brewers",
      "outputs": [
        {
          "internalType": "string",
          "name": "id",
          "type": "string"
        },
        {
          "internalType": "string",
          "name": "companyId",
          "type": "string"
        },
        {
          "internalType": "string",
          "name": "name",
          "type": "string"
        },
        {
          "internalType": "string",
          "name": "homeAddress",
          "type": "string"
        },
        {
          "internalType": "string",
          "name": "district",
          "type": "string"
        },
        {
          "internalType": "string",
          "name": "contactNumber",
          "type": "string"
        }
      ],
      "stateMutability": "view",
      "type": "function"
    },
    {
      "inputs": [
        {
          "internalType": "uint256",
          "name": "",
          "type": "uint256"
        }
      ],
      "name": "collectorIds",
      "outputs": [
        {
          "internalType": "string",
          "name": "",
          "type": "string"
        }
      ],
      "stateMutability": "view",
      "type": "function"
    },
    {
      "inputs": [
        {
          "internalType": "string",
          "name": "",
          "type": "string"
        }
      ],
      "name": "collectors",
      "outputs": [
        {
          "internalType": "string",
          "name": "id",
          "type": "string"
        },
        {
          "internalType": "string",
          "name": "nic",
          "type": "string"
        },
        {
          "internalType": "string",
          "name": "fullName",
          "type": "string"
        },
        {
          "internalType": "string",
          "name": "district",
          "type": "string"
        }
      ],
      "stateMutability": "view",
      "type": "function"
    },
    {
      "inputs": [
        {
          "internalType": "uint256",
          "name": "",
          "type": "uint256"
        }
      ],
      "name": "exporterIds",
      "outputs": [
        {
          "internalType": "string",
          "name": "",
          "type": "string"
        }
      ],
      "stateMutability": "view",
      "type": "function"
    },
    {
      "inputs": [
        {
          "internalType": "string",
          "name": "",
          "type": "string"
        }
      ],
      "name": "exporters",
      "outputs": [
        {
          "internalType": "string",
          "name": "id",
          "type": "string"
        },
        {
          "internalType": "string",
          "name": "companyId",
          "type": "string"
        },
        {
          "internalType": "string",
          "name": "name",
          "type": "string"
        },
        {
          "internalType": "string",
          "name": "homeAddress",
          "type": "string"
        },
        {
          "internalType": "string",
          "name": "district",
          "type": "string"
        },
        {
          "internalType": "string",
          "name": "contactNumber",
          "type": "string"
        }
      ],
      "stateMutability": "view",
      "type": "function"
    },
    {
      "inputs": [
        {
          "internalType": "uint256",
          "name": "",
          "type": "uint256"
        }
      ],
      "name": "farmerIds",
      "outputs": [
        {
          "internalType": "string",
          "name": "",
          "type": "string"
        }
      ],
      "stateMutability": "view",
      "type": "function"
    },
    {
      "inputs": [
        {
          "internalType": "string",
          "name": "",
          "type": "string"
        }
      ],
      "name": "farmers",
      "outputs": [
        {
          "internalType": "string",
          "name": "id",
          "type": "string"
        },
        {
          "internalType": "string",
          "name": "nic",
          "type": "string"
        },
        {
          "internalType": "string",
          "name": "fullName",
          "type": "string"
        },
        {
          "internalType": "string",
          "name": "district",
          "type": "string"
        },
        {
          "internalType": "uint256",
          "name": "totalPaddyFieldArea",
          "type": "uint256"
        }
      ],
      "stateMutability": "view",
      "type": "function"
    },
    {
      "inputs": [
        {
          "internalType": "string",
          "name": "_id",
          "type": "string"
        }
      ],
      "name": "getAnimalFood",
      "outputs": [
        {
          "components": [
            {
              "internalType": "string",
              "name": "id",
              "type": "string"
            },
            {
              "internalType": "string",
              "name": "companyId",
              "type": "string"
            },
            {
              "internalType": "string",
              "name": "name",
              "type": "string"
            },
            {
              "internalType": "string",
              "name": "homeAddress",
              "type": "string"
            },
            {
              "internalType": "string",
              "name": "district",
              "type": "string"
            },
            {
              "internalType": "string",
              "name": "contactNumber",
              "type": "string"
            }
          ],
          "internalType": "struct UserAccounts.AnimalFood",
          "name": "",
          "type": "tuple"
        }
      ],
      "stateMutability": "view",
      "type": "function"
    },
    {
      "inputs": [],
      "name": "getAnimalFoodCount",
      "outputs": [
        {
          "internalType": "uint256",
          "name": "",
          "type": "uint256"
        }
      ],
      "stateMutability": "view",
      "type": "function"
    },
    {
      "inputs": [
        {
          "internalType": "string",
          "name": "_id",
          "type": "string"
        }
      ],
      "name": "getBrewer",
      "outputs": [
        {
          "components": [
            {
              "internalType": "string",
              "name": "id",
              "type": "string"
            },
            {
              "internalType": "string",
              "name": "companyId",
              "type": "string"
            },
            {
              "internalType": "string",
              "name": "name",
              "type": "string"
            },
            {
              "internalType": "string",
              "name": "homeAddress",
              "type": "string"
            },
            {
              "internalType": "string",
              "name": "district",
              "type": "string"
            },
            {
              "internalType": "string",
              "name": "contactNumber",
              "type": "string"
            }
          ],
          "internalType": "struct UserAccounts.Brewer",
          "name": "",
          "type": "tuple"
        }
      ],
      "stateMutability": "view",
      "type": "function"
    },
    {
      "inputs": [],
      "name": "getBrewerCount",
      "outputs": [
        {
          "internalType": "uint256",
          "name": "",
          "type": "uint256"
        }
      ],
      "stateMutability": "view",
      "type": "function"
    },
    {
      "inputs": [
        {
          "internalType": "string",
          "name": "_id",
          "type": "string"
        }
      ],
      "name": "getCollector",
      "outputs": [
        {
          "components": [
            {
              "internalType": "string",
              "name": "id",
              "type": "string"
            },
            {
              "internalType": "string",
              "name": "nic",
              "type": "string"
            },
            {
              "internalType": "string",
              "name": "fullName",
              "type": "string"
            },
            {
              "internalType": "string",
              "name": "district",
              "type": "string"
            }
          ],
          "internalType": "struct UserAccounts.Collector",
          "name": "",
          "type": "tuple"
        }
      ],
      "stateMutability": "view",
      "type": "function"
    },
    {
      "inputs": [],
      "name": "getCollectorCount",
      "outputs": [
        {
          "internalType": "uint256",
          "name": "",
          "type": "uint256"
        }
      ],
      "stateMutability": "view",
      "type": "function"
    },
    {
      "inputs": [
        {
          "internalType": "string",
          "name": "_id",
          "type": "string"
        }
      ],
      "name": "getExporter",
      "outputs": [
        {
          "components": [
            {
              "internalType": "string",
              "name": "id",
              "type": "string"
            },
            {
              "internalType": "string",
              "name": "companyId",
              "type": "string"
            },
            {
              "internalType": "string",
              "name": "name",
              "type": "string"
            },
            {
              "internalType": "string",
              "name": "homeAddress",
              "type": "string"
            },
            {
              "internalType": "string",
              "name": "district",
              "type": "string"
            },
            {
              "internalType": "string",
              "name": "contactNumber",
              "type": "string"
            }
          ],
          "internalType": "struct UserAccounts.Exporter",
          "name": "",
          "type": "tuple"
        }
      ],
      "stateMutability": "view",
      "type": "function"
    },
    {
      "inputs": [],
      "name": "getExporterCount",
      "outputs": [
        {
          "internalType": "uint256",
          "name": "",
          "type": "uint256"
        }
      ],
      "stateMutability": "view",
      "type": "function"
    },
    {
      "inputs": [
        {
          "internalType": "string",
          "name": "_id",
          "type": "string"
        }
      ],
      "name": "getFarmer",
      "outputs": [
        {
          "components": [
            {
              "internalType": "string",
              "name": "id",
              "type": "string"
            },
            {
              "internalType": "string",
              "name": "nic",
              "type": "string"
            },
            {
              "internalType": "string",
              "name": "fullName",
              "type": "string"
            },
            {
              "internalType": "string",
              "name": "district",
              "type": "string"
            },
            {
              "internalType": "uint256",
              "name": "totalPaddyFieldArea",
              "type": "uint256"
            }
          ],
          "internalType": "struct UserAccounts.Farmer",
          "name": "",
          "type": "tuple"
        }
      ],
      "stateMutability": "view",
      "type": "function"
    },
    {
      "inputs": [],
      "name": "getFarmerCount",
      "outputs": [
        {
          "internalType": "uint256",
          "name": "",
          "type": "uint256"
        }
      ],
      "stateMutability": "view",
      "type": "function"
    },
    {
      "inputs": [
        {
          "internalType": "string",
          "name": "_id",
          "type": "string"
        }
      ],
      "name": "getMiller",
      "outputs": [
        {
          "components": [
            {
              "internalType": "string",
              "name": "id",
              "type": "string"
            },
            {
              "internalType": "string",
              "name": "companyRegisterNumber",
              "type": "string"
            },
            {
              "internalType": "string",
              "name": "companyName",
              "type": "string"
            },
            {
              "internalType": "string",
              "name": "homeAddress",
              "type": "string"
            },
            {
              "internalType": "string",
              "name": "district",
              "type": "string"
            },
            {
              "internalType": "string",
              "name": "contactNumber",
              "type": "string"
            }
          ],
          "internalType": "struct UserAccounts.Miller",
          "name": "",
          "type": "tuple"
        }
      ],
      "stateMutability": "view",
      "type": "function"
    },
    {
      "inputs": [],
      "name": "getMillerCount",
      "outputs": [
        {
          "internalType": "uint256",
          "name": "",
          "type": "uint256"
        }
      ],
      "stateMutability": "view",
      "type": "function"
    },
    {
      "inputs": [
        {
          "internalType": "string",
          "name": "_id",
          "type": "string"
        }
      ],
      "name": "getRetailer",
      "outputs": [
        {
          "components": [
            {
              "internalType": "string",
              "name": "id",
              "type": "string"
            },
            {
              "internalType": "string",
              "name": "name",
              "type": "string"
            },
            {
              "internalType": "string",
              "name": "district",
              "type": "string"
            }
          ],
          "internalType": "struct UserAccounts.Retailer",
          "name": "",
          "type": "tuple"
        }
      ],
      "stateMutability": "view",
      "type": "function"
    },
    {
      "inputs": [],
      "name": "getRetailerCount",
      "outputs": [
        {
          "internalType": "uint256",
          "name": "",
          "type": "uint256"
        }
      ],
      "stateMutability": "view",
      "type": "function"
    },
    {
      "inputs": [
        {
          "internalType": "string",
          "name": "_id",
          "type": "string"
        }
      ],
      "name": "getWholesaler",
      "outputs": [
        {
          "components": [
            {
              "internalType": "string",
              "name": "id",
              "type": "string"
            },
            {
              "internalType": "string",
              "name": "companyRegisterNumber",
              "type": "string"
            },
            {
              "internalType": "string",
              "name": "companyName",
              "type": "string"
            },
            {
              "internalType": "string",
              "name": "homeAddress",
              "type": "string"
            },
            {
              "internalType": "string",
              "name": "district",
              "type": "string"
            },
            {
              "internalType": "string",
              "name": "contactNumber",
              "type": "string"
            }
          ],
          "internalType": "struct UserAccounts.Wholesaler",
          "name": "",
          "type": "tuple"
        }
      ],
      "stateMutability": "view",
      "type": "function"
    },
    {
      "inputs": [],
      "name": "getWholesalerCount",
      "outputs": [
        {
          "internalType": "uint256",
          "name": "",
          "type": "uint256"
        }
      ],
      "stateMutability": "view",
      "type": "function"
    },
    {
      "inputs": [
        {
          "internalType": "uint256",
          "name": "",
          "type": "uint256"
        }
      ],
      "name": "millerIds",
      "outputs": [
        {
          "internalType": "string",
          "name": "",
          "type": "string"
        }
      ],
      "stateMutability": "view",
      "type": "function"
    },
    {
      "inputs": [
        {
          "internalType": "string",
          "name": "",
          "type": "string"
        }
      ],
      "name": "millers",
      "outputs": [
        {
          "internalType": "string",
          "name": "id",
          "type": "string"
        },
        {
          "internalType": "string",
          "name": "companyRegisterNumber",
          "type": "string"
        },
        {
          "internalType": "string",
          "name": "companyName",
          "type": "string"
        },
        {
          "internalType": "string",
          "name": "homeAddress",
          "type": "string"
        },
        {
          "internalType": "string",
          "name": "district",
          "type": "string"
        },
        {
          "internalType": "string",
          "name": "contactNumber",
          "type": "string"
        }
      ],
      "stateMutability": "view",
      "type": "function"
    },
    {
      "inputs": [
        {
          "components": [
            {
              "internalType": "string",
              "name": "id",
              "type": "string"
            },
            {
              "internalType": "string",
              "name": "companyId",
              "type": "string"
            },
            {
              "internalType": "string",
              "name": "name",
              "type": "string"
            },
            {
              "internalType": "string",
              "name": "homeAddress",
              "type": "string"
            },
            {
              "internalType": "string",
              "name": "district",
              "type": "string"
            },
            {
              "internalType": "string",
              "name": "contactNumber",
              "type": "string"
            }
          ],
          "internalType": "struct UserAccounts.AnimalFoodInput",
          "name": "input",
          "type": "tuple"
        }
      ],
      "name": "registerAnimalFood",
      "outputs": [],
      "stateMutability": "nonpayable",
      "type": "function"
    },
    {
      "inputs": [
        {
          "components": [
            {
              "internalType": "string",
              "name": "id",
              "type": "string"
            },
            {
              "internalType": "string",
              "name": "companyId",
              "type": "string"
            },
            {
              "internalType": "string",
              "name": "name",
              "type": "string"
            },
            {
              "internalType": "string",
              "name": "homeAddress",
              "type": "string"
            },
            {
              "internalType": "string",
              "name": "district",
              "type": "string"
            },
            {
              "internalType": "string",
              "name": "contactNumber",
              "type": "string"
            }
          ],
          "internalType": "struct UserAccounts.BrewerInput",
          "name": "input",
          "type": "tuple"
        }
      ],
      "name": "registerBrewer",
      "outputs": [],
      "stateMutability": "nonpayable",
      "type": "function"
    },
    {
      "inputs": [
        {
          "components": [
            {
              "internalType": "string",
              "name": "id",
              "type": "string"
            },
            {
              "internalType": "string",
              "name": "nic",
              "type": "string"
            },
            {
              "internalType": "string",
              "name": "fullName",
              "type": "string"
            },
            {
              "internalType": "string",
              "name": "district",
              "type": "string"
            }
          ],
          "internalType": "struct UserAccounts.CollectorInput",
          "name": "input",
          "type": "tuple"
        }
      ],
      "name": "registerCollector",
      "outputs": [],
      "stateMutability": "nonpayable",
      "type": "function"
    },
    {
      "inputs": [
        {
          "components": [
            {
              "internalType": "string",
              "name": "id",
              "type": "string"
            },
            {
              "internalType": "string",
              "name": "companyId",
              "type": "string"
            },
            {
              "internalType": "string",
              "name": "name",
              "type": "string"
            },
            {
              "internalType": "string",
              "name": "homeAddress",
              "type": "string"
            },
            {
              "internalType": "string",
              "name": "district",
              "type": "string"
            },
            {
              "internalType": "string",
              "name": "contactNumber",
              "type": "string"
            }
          ],
          "internalType": "struct UserAccounts.ExporterInput",
          "name": "input",
          "type": "tuple"
        }
      ],
      "name": "registerExporter",
      "outputs": [],
      "stateMutability": "nonpayable",
      "type": "function"
    },
    {
      "inputs": [
        {
          "components": [
            {
              "internalType": "string",
              "name": "id",
              "type": "string"
            },
            {
              "internalType": "string",
              "name": "nic",
              "type": "string"
            },
            {
              "internalType": "string",
              "name": "fullName",
              "type": "string"
            },
            {
              "internalType": "string",
              "name": "district",
              "type": "string"
            },
            {
              "internalType": "uint256",
              "name": "totalPaddyFieldArea",
              "type": "uint256"
            }
          ],
          "internalType": "struct UserAccounts.FarmerInput",
          "name": "input",
          "type": "tuple"
        }
      ],
      "name": "registerFarmer",
      "outputs": [],
      "stateMutability": "nonpayable",
      "type": "function"
    },
    {
      "inputs": [
        {
          "components": [
            {
              "internalType": "string",
              "name": "id",
              "type": "string"
            },
            {
              "internalType": "string",
              "name": "companyRegisterNumber",
              "type": "string"
            },
            {
              "internalType": "string",
              "name": "companyName",
              "type": "string"
            },
            {
              "internalType": "string",
              "name": "homeAddress",
              "type": "string"
            },
            {
              "internalType": "string",
              "name": "district",
              "type": "string"
            },
            {
              "internalType": "string",
              "name": "contactNumber",
              "type": "string"
            }
          ],
          "internalType": "struct UserAccounts.MillerInput",
          "name": "input",
          "type": "tuple"
        }
      ],
      "name": "registerMiller",
      "outputs": [],
      "stateMutability": "nonpayable",
      "type": "function"
    },
    {
      "inputs": [
        {
          "components": [
            {
              "internalType": "string",
              "name": "id",
              "type": "string"
            },
            {
              "internalType": "string",
              "name": "name",
              "type": "string"
            },
            {
              "internalType": "string",
              "name": "district",
              "type": "string"
            }
          ],
          "internalType": "struct UserAccounts.RetailerInput",
          "name": "input",
          "type": "tuple"
        }
      ],
      "name": "registerRetailer",
      "outputs": [],
      "stateMutability": "nonpayable",
      "type": "function"
    },
    {
      "inputs": [
        {
          "components": [
            {
              "internalType": "string",
              "name": "id",
              "type": "string"
            },
            {
              "internalType": "string",
              "name": "companyRegisterNumber",
              "type": "string"
            },
            {
              "internalType": "string",
              "name": "companyName",
              "type": "string"
            },
            {
              "internalType": "string",
              "name": "homeAddress",
              "type": "string"
            },
            {
              "internalType": "string",
              "name": "district",
              "type": "string"
            },
            {
              "internalType": "string",
              "name": "contactNumber",
              "type": "string"
            }
          ],
          "internalType": "struct UserAccounts.WholesalerInput",
          "name": "input",
          "type": "tuple"
        }
      ],
      "name": "registerWholesaler",
      "outputs": [],
      "stateMutability": "nonpayable",
      "type": "function"
    },
    {
      "inputs": [
        {
          "internalType": "uint256",
          "name": "",
          "type": "uint256"
        }
      ],
      "name": "retailerIds",
      "outputs": [
        {
          "internalType": "string",
          "name": "",
          "type": "string"
        }
      ],
      "stateMutability": "view",
      "type": "function"
    },
    {
      "inputs": [
        {
          "internalType": "string",
          "name": "",
          "type": "string"
        }
      ],
      "name": "retailers",
      "outputs": [
        {
          "internalType": "string",
          "name": "id",
          "type": "string"
        },
        {
          "internalType": "string",
          "name": "name",
          "type": "string"
        },
        {
          "internalType": "string",
          "name": "district",
          "type": "string"
        }
      ],
      "stateMutability": "view",
      "type": "function"
    },
    {
      "inputs": [
        {
          "components": [
            {
              "internalType": "string",
              "name": "id",
              "type": "string"
            },
            {
              "internalType": "string",
              "name": "companyId",
              "type": "string"
            },
            {
              "internalType": "string",
              "name": "name",
              "type": "string"
            },
            {
              "internalType": "string",
              "name": "homeAddress",
              "type": "string"
            },
            {
              "internalType": "string",
              "name": "district",
              "type": "string"
            },
            {
              "internalType": "string",
              "name": "contactNumber",
              "type": "string"
            }
          ],
          "internalType": "struct UserAccounts.AnimalFoodInput",
          "name": "input",
          "type": "tuple"
        }
      ],
      "name": "updateAnimalFood",
      "outputs": [],
      "stateMutability": "nonpayable",
      "type": "function"
    },
    {
      "inputs": [
        {
          "components": [
            {
              "internalType": "string",
              "name": "id",
              "type": "string"
            },
            {
              "internalType": "string",
              "name": "companyId",
              "type": "string"
            },
            {
              "internalType": "string",
              "name": "name",
              "type": "string"
            },
            {
              "internalType": "string",
              "name": "homeAddress",
              "type": "string"
            },
            {
              "internalType": "string",
              "name": "district",
              "type": "string"
            },
            {
              "internalType": "string",
              "name": "contactNumber",
              "type": "string"
            }
          ],
          "internalType": "struct UserAccounts.BrewerInput",
          "name": "input",
          "type": "tuple"
        }
      ],
      "name": "updateBrewer",
      "outputs": [],
      "stateMutability": "nonpayable",
      "type": "function"
    },
    {
      "inputs": [
        {
          "components": [
            {
              "internalType": "string",
              "name": "id",
              "type": "string"
            },
            {
              "internalType": "string",
              "name": "nic",
              "type": "string"
            },
            {
              "internalType": "string",
              "name": "fullName",
              "type": "string"
            },
            {
              "internalType": "string",
              "name": "district",
              "type": "string"
            }
          ],
          "internalType": "struct UserAccounts.CollectorInput",
          "name": "input",
          "type": "tuple"
        }
      ],
      "name": "updateCollector",
      "outputs": [],
      "stateMutability": "nonpayable",
      "type": "function"
    },
    {
      "inputs": [
        {
          "components": [
            {
              "internalType": "string",
              "name": "id",
              "type": "string"
            },
            {
              "internalType": "string",
              "name": "companyId",
              "type": "string"
            },
            {
              "internalType": "string",
              "name": "name",
              "type": "string"
            },
            {
              "internalType": "string",
              "name": "homeAddress",
              "type": "string"
            },
            {
              "internalType": "string",
              "name": "district",
              "type": "string"
            },
            {
              "internalType": "string",
              "name": "contactNumber",
              "type": "string"
            }
          ],
          "internalType": "struct UserAccounts.ExporterInput",
          "name": "input",
          "type": "tuple"
        }
      ],
      "name": "updateExporter",
      "outputs": [],
      "stateMutability": "nonpayable",
      "type": "function"
    },
    {
      "inputs": [
        {
          "components": [
            {
              "internalType": "string",
              "name": "id",
              "type": "string"
            },
            {
              "internalType": "string",
              "name": "nic",
              "type": "string"
            },
            {
              "internalType": "string",
              "name": "fullName",
              "type": "string"
            },
            {
              "internalType": "string",
              "name": "district",
              "type": "string"
            },
            {
              "internalType": "uint256",
              "name": "totalPaddyFieldArea",
              "type": "uint256"
            }
          ],
          "internalType": "struct UserAccounts.FarmerInput",
          "name": "input",
          "type": "tuple"
        }
      ],
      "name": "updateFarmer",
      "outputs": [],
      "stateMutability": "nonpayable",
      "type": "function"
    },
    {
      "inputs": [
        {
          "components": [
            {
              "internalType": "string",
              "name": "id",
              "type": "string"
            },
            {
              "internalType": "string",
              "name": "companyRegisterNumber",
              "type": "string"
            },
            {
              "internalType": "string",
              "name": "companyName",
              "type": "string"
            },
            {
              "internalType": "string",
              "name": "homeAddress",
              "type": "string"
            },
            {
              "internalType": "string",
              "name": "district",
              "type": "string"
            },
            {
              "internalType": "string",
              "name": "contactNumber",
              "type": "string"
            }
          ],
          "internalType": "struct UserAccounts.MillerInput",
          "name": "input",
          "type": "tuple"
        }
      ],
      "name": "updateMiller",
      "outputs": [],
      "stateMutability": "nonpayable",
      "type": "function"
    },
    {
      "inputs": [
        {
          "components": [
            {
              "internalType": "string",
              "name": "id",
              "type": "string"
            },
            {
              "internalType": "string",
              "name": "name",
              "type": "string"
            },
            {
              "internalType": "string",
              "name": "district",
              "type": "string"
            }
          ],
          "internalType": "struct UserAccounts.RetailerInput",
          "name": "input",
          "type": "tuple"
        }
      ],
      "name": "updateRetailer",
      "outputs": [],
      "stateMutability": "nonpayable",
      "type": "function"
    },
    {
      "inputs": [
        {
          "components": [
            {
              "internalType": "string",
              "name": "id",
              "type": "string"
            },
            {
              "internalType": "string",
              "name": "companyRegisterNumber",
              "type": "string"
            },
            {
              "internalType": "string",
              "name": "companyName",
              "type": "string"
            },
            {
              "internalType": "string",
              "name": "homeAddress",
              "type": "string"
            },
            {
              "internalType": "string",
              "name": "district",
              "type": "string"
            },
            {
              "internalType": "string",
              "name": "contactNumber",
              "type": "string"
            }
          ],
          "internalType": "struct UserAccounts.WholesalerInput",
          "name": "input",
          "type": "tuple"
        }
      ],
      "name": "updateWholesaler",
      "outputs": [],
      "stateMutability": "nonpayable",
      "type": "function"
    },
    {
      "inputs": [
        {
          "internalType": "uint256",
          "name": "",
          "type": "uint256"
        }
      ],
      "name": "wholesalerIds",
      "outputs": [
        {
          "internalType": "string",
          "name": "",
          "type": "string"
        }
      ],
      "stateMutability": "view",
      "type": "function"
    },
    {
      "inputs": [
        {
          "internalType": "string",
          "name": "",
          "type": "string"
        }
      ],
      "name": "wholesalers",
      "outputs": [
        {
          "internalType": "string",
          "name": "id",
          "type": "string"
        },
        {
          "internalType": "string",
          "name": "companyRegisterNumber",
          "type": "string"
        },
        {
          "internalType": "string",
          "name": "companyName",
          "type": "string"
        },
        {
          "internalType": "string",
          "name": "homeAddress",
          "type": "string"
        },
        {
          "internalType": "string",
          "name": "district",
          "type": "string"
        },
        {
          "internalType": "string",
          "name": "contactNumber",
          "type": "string"
        }
      ],
      "stateMutability": "view",
      "type": "function"
    }
  ],
  "bytecode": "0x60808060405234601557614dbb908161001a8239f35b5f80fdfe60806040526004361015610011575f80fd5b5f3560e01c8063043a527f14614004578063054f368b14613fe757806307d33ecb14613d36578063096824d314613d195780630e1c0f6314613a685780630e60a7ba1461363d578063196562911461338c5780631a5fde09146133325780631b6f25f214613300578063255599d9146132e3578063258c405a146132895780632b4a5545146132575780632c3285bf14612cee578063331a791014612a3d5780633a068d65146129bf5780633f4a6c2b1461249e578063485a07cc1461243e5780634a3d42ba146123e45780634ef051211461238a578063501a24721461236d57806353777bfd1461233b5780635cda31721461228a57806364d80892146120cd5780636966af97146120735780637013053214612013578063707c74cb14611e5657806371404bcb14611b3557806374a13d6d14611ad55780637689048d14611a7b578063771195171461162757806377f2fc621461158b578063994cac901461156e5780639a39aa941461144f5780639a604136146114325780639d4084ad146110ad5780639ddb78491461104d578063ad9c547014610e90578063b151494214610d5a578063ba3a2d9814610d3d578063bbf1ad2714610d0b578063bd3966f814610c97578063c4a8b5d514610c7a578063ce7ee6a3146107af578063db3cae7f1461072f578063dd03f3b51461069a578063df4f2b60146104dd578063f6fee1f5146103205763fffc25de14610229575f80fd5b3461031c576102f2602061023c366143b8565b919060606040805161024d816140c6565b8281528285820152015261027e610277604051858482378481878101600481520301902054614073565b1515614cc4565b82604051938492833781016004815203019020610318604051916102a1836140c6565b6102aa81614138565b83526103056102ce60026102c060018501614138565b936020870194855201614138565b916040850192835260405195869560208752516060602088015260808701906141d8565b9051858203601f190160408701526141d8565b9051838203601f190160608501526141d8565b0390f35b5f80fd5b3461031c5761032e366141fc565b6103388180614485565b908160405192839283378101600281520360200190205461035890614073565b151561036390614b0e565b61036d8180614485565b826020819394019161037f8383614485565b92909160408201966103918884614485565b95909460608501966103a38887614485565b60808801986103b28a8a614485565b94909560a08b019a8b6103c491614485565b9890996040519b6103d48d6140ab565b36906103df92614262565b8b5236906103ec92614262565b60208a015236906103fc92614262565b6040880152369061040c92614262565b6060860152369061041c92614262565b6080840152369061042c92614262565b60a082015261043b8680614485565b908160405192839283378101600281520360200190209061045b91614506565b6104658580614485565b9590946104729082614485565b93909761047f9083614485565b91909561048c9084614485565b9290916104999085614485565b956104a49195614485565b9790966040519b8c9b6104b79b8d61498e565b037ff3231fc2c70cb8661360d7866035205e0936b9345c89d534f7df03ee85ae412591a1005b3461031c576104eb366141fc565b6104f58180614485565b908160405192839283378101600781520360200190205461051590614073565b151561052090614d05565b61052a8180614485565b826020819394019161053c8383614485565b929091604082019661054e8884614485565b95909460608501966105608887614485565b608088019861056f8a8a614485565b94909560a08b019a8b61058191614485565b9890996040519b6105918d6140ab565b369061059c92614262565b8b5236906105a992614262565b60208a015236906105b992614262565b604088015236906105c992614262565b606086015236906105d992614262565b608084015236906105e992614262565b60a08201526105f88680614485565b908160405192839283378101600781520360200190209061061891614506565b6106228580614485565b95909461062f9082614485565b93909761063c9083614485565b9190956106499084614485565b9290916106569085614485565b956106619195614485565b9790966040519b8c9b6106749b8d61498e565b037f568d4f5db3bf0bfa5a5d86fcda7720365e05858952447a6848a3ecb3337eea0b91a1005b3461031c57602036600319011261031c57600435600c5481101561031c57600c5481101561071b57600c5f527fdf6966c971051c3d54ec59162606531493a51404a002842f56009d7e5cf4a8c7016106f461031891614138565b6040519182916020835260208301906141d8565b634e487b7160e01b5f525f60045260245ffd5b634e487b7160e01b5f52603260045260245ffd5b3461031c57602080610740366142a7565b604051928184925191829101835e8101600581520301902061076181614138565b61031861077060018401614138565b9261077d60028201614138565b9061078a60038201614138565b6107a2600561079b60048501614138565b9301614138565b92604051968796876142e5565b3461031c576107bd36614352565b6107f06107e960206107cf8480614485565b919082604051938492833781015f81520301902054614073565b1515614d46565b6107fa8180614485565b90602083019161080a8385614485565b9094604081019261087d61081e8584614485565b91909461086e606086019661085f6108368989614485565b9d909461085660808b01359d6040519a61084f8c6140e1565b3691614262565b89523691614262565b94602087019586523691614262565b99604085019a8b523691614262565b9760608301988952608083019187835260206108998680614485565b919082604051938492833781015f81520301902093518051906001600160401b038211610b27576108d4826108ce8854614073565b886144b7565b602090601f8311600114610c175761090392915f9183610ba9575b50508160011b915f199060031b1c19161790565b84555b51805160018501916001600160401b038211610b27576109308261092a8554614073565b856144b7565b602090601f8311600114610bb45761095e92915f9183610ba95750508160011b915f199060031b1c19161790565b90555b51805160028401916001600160401b038211610b27576109858261092a8554614073565b602090601f8311600114610b46576109b392915f9183610b3b5750508160011b915f199060031b1c19161790565b90555b6003820197519788516001600160401b038111610b27576109e1816109db8454614073565b846144b7565b602099601f8211600114610a9157610a6199989693610a6a9693610a4484610a819b98957f5bdfb21da1259009a55f4a4141da83a275c0162237f9290dd7d6a01a73bec5ab9f6004965f92610a865750508160011b915f199060031b1c19161790565b90555b51910155610a72610a588280614485565b99909883614485565b95909483614485565b939092614485565b949093604051998a998a614a3c565b0390a1005b015190505f806108ef565b601f19821690835f528b5f20915f5b818110610b0f5750936001846004947f5bdfb21da1259009a55f4a4141da83a275c0162237f9290dd7d6a01a73bec5ab9f610a619f9e9c9995610a819e9b98610a6a9d9a10610af7575b505050811b019055610a47565b01515f1960f88460031b161c191690558f8080610aea565b828e0151845560209d8e019d60019094019301610aa0565b634e487b7160e01b5f52604160045260245ffd5b015190508c806108ef565b90601f19831691845f52815f20925f5b818110610b915750908460019594939210610b79575b505050811b0190556109b6565b01515f1960f88460031b161c191690558b8080610b6c565b92936020600181928786015181550195019301610b56565b015190508d806108ef565b90601f19831691845f52815f20925f5b818110610bff5750908460019594939210610be7575b505050811b019055610961565b01515f1960f88460031b161c191690558c8080610bda565b92936020600181928786015181550195019301610bc4565b90601f19831691875f52815f20925f5b818110610c625750908460019594939210610c4a575b505050811b018455610906565b01515f1960f88460031b161c191690558c8080610c3d565b92936020600181928786015181550195019301610c27565b3461031c575f36600319011261031c576020600854604051908152f35b3461031c57610318610cf76020610cad366143b8565b9190610cb7614ade565b50610cdf610cd8604051858482378481878101600581520301902054614073565b1515614c00565b82604051938492833781016005815203019020614b4d565b604051918291602083526020830190614407565b3461031c57602080610d1c366142a7565b604051928184925191829101835e8101600681520301902061076181614138565b3461031c575f36600319011261031c576020600b54604051908152f35b3461031c57610e4c6020610d6d366143b8565b91905f6080604051610d7e816140e1565b60608152606085820152606060408201526060808201520152610db66107e96040518584823784818781015f81520301902054614073565b82604051938492833781015f81520301902060405190610dd5826140e1565b610dde81614138565b8252610e85610def60018301614138565b9160208401928352610e72610e0660028301614138565b60408601908152610e5f6004610e1e60038601614138565b94606089019586520154956080880196875260405198899860208a525160a060208b015260c08a01906141d8565b9051888203601f190160408a01526141d8565b9051868203601f190160608801526141d8565b9051848203601f190160808601526141d8565b905160a08301520390f35b3461031c57610e9e366141fc565b610ea88180614485565b9081604051928392833781016006815203602001902054610ec890614073565b1515610ed390614c3f565b610edd8180614485565b8260208193940191610eef8383614485565b9290916040820196610f018884614485565b9590946060850196610f138887614485565b6080880198610f228a8a614485565b94909560a08b019a8b610f3491614485565b9890996040519b610f448d6140ab565b3690610f4f92614262565b8b523690610f5c92614262565b60208a01523690610f6c92614262565b60408801523690610f7c92614262565b60608601523690610f8c92614262565b60808401523690610f9c92614262565b60a0820152610fab8680614485565b9081604051928392833781016006815203602001902090610fcb91614506565b610fd58580614485565b959094610fe29082614485565b939097610fef9083614485565b919095610ffc9084614485565b9290916110099085614485565b956110149195614485565b9790966040519b8c9b6110279b8d61498e565b037f96f5d49dc896b9ed550ae027281345d8e47f52628dbe8db1f4cb35cf46b78f6491a1005b3461031c57610318610cf76020611063366143b8565b919061106d614ade565b5061109561108e604051858482378481878101600781520301902054614073565b1515614d05565b82604051938492833781016007815203019020614b4d565b3461031c5761112d6111366110c13661422f565b6110ee61027760206110d38480614485565b91908260405193849283378101600481520301902054614073565b6110f88180614485565b6020830194916111459061110c8786614485565b9690604087019761111d8989614485565b9790946040519761084f896140c6565b86523691614262565b93602084019485523691614262565b916040820192835260206111598580614485565b91908260405193849283378101600481520301902091518051906001600160401b038211610b27576111958261118f8654614073565b866144b7565b602090601f83116001146113cf576111c392915f91836113c45750508160011b915f199060031b1c19161790565b82555b51805160018301916001600160401b038211610b27576111ea8261092a8554614073565b602090601f831160011461135d57918061121d9260029695945f926112c45750508160011b915f199060031b1c19161790565b90555b0190518051906001600160401b038211610b27576112428261092a8554614073565b602090601f83116001146112cf579261129c83610a6a97947f6b5a9760195f1dec2458886d8118e351971d7cbbf9ada08b89af8d6948e999ca999794610a81975f926112c45750508160011b915f199060031b1c19161790565b90555b6112b56112ac8280614485565b96909583614485565b92909160405196879687614a02565b015190508a806108ef565b90601f19831691845f52815f20925f5b8181106113455750937f6b5a9760195f1dec2458886d8118e351971d7cbbf9ada08b89af8d6948e999ca989693610a81969360019383610a6a9b981061132d575b505050811b01905561129f565b01515f1960f88460031b161c19169055898080611320565b929360206001819287860151815501950193016112df565b90601f19831691845f52815f20925f5b8181106113ac575091600193918560029897969410611394575b505050811b019055611220565b01515f1960f88460031b161c19169055898080611387565b9293602060018192878601518155019501930161136d565b0151905089806108ef565b90601f19831691855f52815f20925f5b81811061141a5750908460019594939210611402575b505050811b0182556111c6565b01515f1960f88460031b161c191690558880806113f5565b929360206001819287860151815501950193016113df565b3461031c575f36600319011261031c576020600954604051908152f35b3461031c576115356020611462366143b8565b9190606080604051611473816140fc565b818152818582015281604082015201526114aa6114a3604051858482378481878101600181520301902054614073565b1515614c82565b82604051938492833781016001815203019020610318604051916114cd836140fc565b6114d681614138565b835261155b6114e760018301614138565b9160208501928352611548611511600361150360028501614138565b936040890194855201614138565b93606087019485526040519788976020895251608060208a015260a08901906141d8565b9051878203601f190160408901526141d8565b9051858203601f190160608701526141d8565b9051838203601f190160808501526141d8565b3461031c575f36600319011261031c576020600c54604051908152f35b3461031c576115fd60208061159f366142a7565b604051928184925191829101835e810160018152030190206103186115c382614138565b916116196115d360018301614138565b9161160b6115e8600361079b60028501614138565b936040519788976080895260808901906141d8565b9087820360208901526141d8565b9085820360408701526141d8565b9083820360608501526141d8565b3461031c576116be6116dc61163b36614385565b6116686114a3602061164d8480614485565b91908260405193849283378101600181520301902054614073565b6116728180614485565b92909160208101936108566116878684614485565b9490956116cd604086019761169c8988614485565b9b909160608901996116ae8b8b614485565b9890966040519a61084f8c6140fc565b9a602087019b8c523691614262565b92604085019384523691614262565b966060830197885260206116f08580614485565b91908260405193849283378101600181520301902092518051906001600160401b038211610b275761172c826117268754614073565b876144b7565b602090601f8311600114611a185761175a92915f91836119445750508160011b915f199060031b1c19161790565b83555b51805160018401916001600160401b038211610b27576117818261092a8554614073565b602090601f83116001146119b5576117af92915f91836119445750508160011b915f199060031b1c19161790565b90555b51805160028301916001600160401b038211610b27576117d68261092a8554614073565b602090601f831160011461194f5791806118099260039695945f926119445750508160011b915f199060031b1c19161790565b90555b0194519485516001600160401b038111610b275761182e816109db8454614073565b6020601f82116001146118b35792610a6196959261188b83610a819794610a6a977f2008383c9335cb9c4be5631b0938f9fdba1725b21b2de4c7ab840c078bef5a249c5f92610b3b5750508160011b915f199060031b1c19161790565b90555b6118a461189b8280614485565b98909783614485565b94909360405198899889614a92565b601f19821697835f52815f20985f5b81811061192c5750837f2008383c9335cb9c4be5631b0938f9fdba1725b21b2de4c7ab840c078bef5a249a610a6a9794610a619b9a9794610a819a9760019510611914575b505050811b01905561188e565b01515f1960f88460031b161c191690558b8080611907565b838301518b556001909a0199602093840193016118c2565b015190508b806108ef565b90601f19831691845f52815f20925f5b81811061199d575091600193918560039897969410611986575b505050811b01905561180c565b01515f1983881b60f8161c191690558a8080611979565b9293602060018192878601518155019501930161195f565b90601f19831691845f52815f20925f5b818110611a0057509084600195949392106119e8575b505050811b0190556117b2565b01515f1960f88460031b161c191690558a80806119db565b929360206001819287860151815501950193016119c5565b90601f19831691865f52815f20925f5b818110611a635750908460019594939210611a4b575b505050811b01835561175d565b01515f1960f88460031b161c191690558a8080611a3e565b92936020600181928786015181550195019301611a28565b3461031c57602036600319011261031c57600435600d5481101561031c57600d5481101561071b57600d5f527fd7b6990105719101dabeb77144f2a3385c8033acd3af97e9423a695e81ad1eb5016106f461031891614138565b3461031c57610318610cf76020611aeb366143b8565b9190611af5614ade565b50611b1d611b16604051858482378481878101600681520301902054614073565b1515614c3f565b82604051938492833781016006815203019020614b4d565b3461031c57611b43366141fc565b611b6d6020611b528380614485565b91908260405193849283378101600681520301902054614073565b611e1157611b7b8180614485565b60208392930191611b8c8382614485565b60408392930193611b9d8584614485565b9790926060850198611baf8a87614485565b95906080880196611bc0888a614485565b93909460a08b019b611bd28d8d614485565b9890996040519b611be28d6140ab565b3690611bed92614262565b8b523690611bfa92614262565b60208a01523690611c0a92614262565b60408801523690611c1a92614262565b60608601523690611c2a92614262565b60808401523690611c3a92614262565b60a0820152611c498380614485565b9081604051928392833781016006815203602001902090611c6991614506565b611c738280614485565b600e97919754600160401b811015610b2757806001611c979201600e55600e61405e565b919091610708576001600160401b038111610b2757611cba816109db8454614073565b5f98601f8211600114611d755793611d4a610a819794611d419794611d1f85611d53967faadda932d7da91d8176b8327287c558192eb0c454b72dcdb7a31bcca1467de989f611d389f9e9b5f92611d6a5750508160011b915f199060031b1c19161790565b90555b611d5b611d2f8680614485565b9c909b87614485565b99909887614485565b93909287614485565b95909487614485565b979096614485565b9890976040519c8d9c8d61498e565b013590505f806108ef565b98601f19821690835f5260205f20915f5b818110611df9575094611d419794600185611d389d9c99957faadda932d7da91d8176b8327287c558192eb0c454b72dcdb7a31bcca1467de989f611d4a96611d5399610a819f9c10611de0575b505050811b019055611d22565b01355f19600384901b60f8161c191690558f8080611dd3565b91926020600181928f87013581550194019201611d86565b60405162461bcd60e51b815260206004820152601d60248201527f416e696d616c466f6f6420616c726561647920726567697374657265640000006044820152606490fd5b3461031c57611e64366141fc565b611e6e8180614485565b9081604051928392833781016005815203602001902054611e8e90614073565b1515611e9990614c00565b611ea38180614485565b8260208193940191611eb58383614485565b9290916040820196611ec78884614485565b9590946060850196611ed98887614485565b6080880198611ee88a8a614485565b94909560a08b019a8b611efa91614485565b9890996040519b611f0a8d6140ab565b3690611f1592614262565b8b523690611f2292614262565b60208a01523690611f3292614262565b60408801523690611f4292614262565b60608601523690611f5292614262565b60808401523690611f6292614262565b60a0820152611f718680614485565b9081604051928392833781016005815203602001902090611f9191614506565b611f9b8580614485565b959094611fa89082614485565b939097611fb59083614485565b919095611fc29084614485565b929091611fcf9085614485565b95611fda9195614485565b9790966040519b8c9b611fed9b8d61498e565b037f1871c200859b826b5204f1e24d257fc6a9cb6ece9b988b3cee2b005e7429493b91a1005b3461031c57610318610cf76020612029366143b8565b9190612033614ade565b5061205b612054604051858482378481878101600381520301902054614073565b1515614bbd565b82604051938492833781016003815203019020614b4d565b3461031c57602036600319011261031c57600435600b5481101561031c57600b5481101561071b57600b5f527f0175b7a638427703f0dbe7bb9bbf987a2551717b34e79f33b5b1008d1fa01db9016106f461031891614138565b3461031c576120db366141fc565b6120e58180614485565b908160405192839283378101600381520360200190205461210590614073565b151561211090614bbd565b61211a8180614485565b826020819394019161212c8383614485565b929091604082019661213e8884614485565b95909460608501966121508887614485565b608088019861215f8a8a614485565b94909560a08b019a8b61217191614485565b9890996040519b6121818d6140ab565b369061218c92614262565b8b52369061219992614262565b60208a015236906121a992614262565b604088015236906121b992614262565b606086015236906121c992614262565b608084015236906121d992614262565b60a08201526121e88680614485565b908160405192839283378101600381520360200190209061220891614506565b6122128580614485565b95909461221f9082614485565b93909761222c9083614485565b9190956122399084614485565b9290916122469085614485565b956122519195614485565b9790966040519b8c9b6122649b8d61498e565b037f67ffd62db438f8c77e8ea4631e0f5957c33a4506d4e6fa5ed41b2eddc294fcb091a1005b3461031c5761230760208061229e366142a7565b604051928184925191829101835e81015f8152030190206122be81614138565b906123316122ce60018301614138565b916123236122de60028301614138565b61231560046122ef60038601614138565b9401549560405198899860a08a5260a08a01906141d8565b9088820360208a01526141d8565b9086820360408801526141d8565b9084820360608601526141d8565b9060808301520390f35b3461031c5760208061234c366142a7565b604051928184925191829101835e8101600781520301902061076181614138565b3461031c575f36600319011261031c576020600d54604051908152f35b3461031c57602036600319011261031c5760043560085481101561031c5760085481101561071b5760085f527ff3f7a9fe364faab93b216da50a3214154f22a0a2b415b23a84c8169e8b636ee3016106f461031891614138565b3461031c57602036600319011261031c57600435600a5481101561031c57600a5481101561071b57600a5f527fc65a7bb8d6351c1cf70c95a316cc6a92839c986682d98bc35f958f4883f9d2a8016106f461031891614138565b3461031c57610318610cf76020612454366143b8565b919061245e614ade565b5061248661247f604051858482378481878101600281520301902054614073565b1515614b0e565b82604051938492833781016002815203019020614b4d565b3461031c576124ac36614385565b6124bb602061164d8380614485565b61297a57806124cd8161251b93614485565b92909161250c60208201946108566124e58785614485565b9590966116cd60408701986124fa8a89614485565b97909160608a019a6116ae8c8c614485565b96602087019788523691614262565b9260608301938452602061252f8680614485565b91908260405193849283378101600181520301902092518051906001600160401b038211610b2757612565826117268754614073565b602090601f83116001146129175761259392915f91836119445750508160011b915f199060031b1c19161790565b83555b51805160018401916001600160401b038211610b27576125ba8261092a8554614073565b602090601f83116001146128b4576125e892915f91836119445750508160011b915f199060031b1c19161790565b90555b51805160028301916001600160401b038211610b275761260f8261092a8554614073565b602090601f831160011461284e5791806126429260039695945f926119445750508160011b915f199060031b1c19161790565b90555b0190518051906001600160401b038211610b27576126678261092a8554614073565b602090601f83116001146127eb5761269592915f91836127e05750508160011b915f199060031b1c19161790565b90555b6126a28180614485565b600a54600160401b811015610b27578060016126c39201600a55600a61405e565b929092610708576001600160401b038211610b27576126e68261092a8554614073565b5f90601f831160011461274e5793610a6a9361188b84610a6199957fa87905b6ddeecd09ea1b22e395a1d867831b58abd57699bf7d1671d2bb993f899b9995610a81995f926127435750508160011b915f199060031b1c19161790565b013590508c806108ef565b601f19831691845f5260205f20925f5b8181106127c85750847fa87905b6ddeecd09ea1b22e395a1d867831b58abd57699bf7d1671d2bb993f899a9894610a819894610a6a9894610a619c98600195106127af57505050811b01905561188e565b01355f19600384901b60f8161c191690558b8080611907565b9193602060018192878701358155019501920161275e565b0151905088806108ef565b90601f19831691845f52815f20925f5b818110612836575090846001959493921061281e575b505050811b019055612698565b01515f1960f88460031b161c19169055878080612811565b929360206001819287860151815501950193016127fb565b90601f19831691845f52815f20925f5b81811061289c575091600193918560039897969410612885575b505050811b019055612645565b01515f1983881b60f8161c191690558a8080612878565b9293602060018192878601518155019501930161285e565b90601f19831691845f52815f20925f5b8181106128ff57509084600195949392106128e7575b505050811b0190556125eb565b01515f1960f88460031b161c191690558a80806128da565b929360206001819287860151815501950193016128c4565b90601f19831691865f52815f20925f5b818110612962575090846001959493921061294a575b505050811b018355612596565b01515f1960f88460031b161c191690558a808061293d565b92936020600181928786015181550195019301612927565b60405162461bcd60e51b815260206004820152601c60248201527f436f6c6c6563746f7220616c72656164792072656769737465726564000000006044820152606490fd5b3461031c57612a216020806129d3366142a7565b604051928184925191829101835e810160048152030190206103186129f782614138565b91612a2f612a0c600261079b60018501614138565b916040519586956060875260608701906141d8565b9085820360208701526141d8565b9083820360408501526141d8565b3461031c57612a4b366141fc565b612a756020612a5a8380614485565b91908260405193849283378101600581520301902054614073565b612ca957612a838180614485565b60208392930191612a948382614485565b60408392930193612aa58584614485565b9790926060850198612ab78a87614485565b95906080880196612ac8888a614485565b93909460a08b019b612ada8d8d614485565b9890996040519b612aea8d6140ab565b3690612af592614262565b8b523690612b0292614262565b60208a01523690612b1292614262565b60408801523690612b2292614262565b60608601523690612b3292614262565b60808401523690612b4292614262565b60a0820152612b518380614485565b9081604051928392833781016005815203602001902090612b7191614506565b612b7b8280614485565b600d97919754600160401b811015610b2757806001612b9f9201600d55600d61405e565b919091610708576001600160401b038111610b2757612bc2816109db8454614073565b5f98601f8211600114612c275793611d4a610a819794611d419794611d1f85611d53967f8bb633a7ec125f2185fd7a6c196113f2572f41797ec7c7eb077f64caa1e1fe429f611d389f9e9b5f92611d6a5750508160011b915f199060031b1c19161790565b98601f19821690835f5260205f20915f5b818110612c91575094611d419794600185611d389d9c99957f8bb633a7ec125f2185fd7a6c196113f2572f41797ec7c7eb077f64caa1e1fe429f611d4a96611d5399610a819f9c10611de057505050811b019055611d22565b91926020600181928f87013581550194019201612c38565b60405162461bcd60e51b815260206004820152601960248201527f42726577657220616c72656164792072656769737465726564000000000000006044820152606490fd5b3461031c57612cfc36614352565b612d0b60206107cf8380614485565b61321257612d198180614485565b906020830191612d298385614485565b9091612d776080612d9588612d866040820197612d468984614485565b9690916060850199612d6e612d5b8c88614485565b99909701359d6040519b61084f8d6140e1565b8a523691614262565b95602088019687523691614262565b92604086019384523691614262565b906060840191825260808401928784526020612db18b80614485565b919082604051938492833781015f81520301902094518051906001600160401b038211610b2757612dec82612de68954614073565b896144b7565b602090601f83116001146131af57612e1a92915f9183610ba95750508160011b915f199060031b1c19161790565b85555b51805160018601916001600160401b038211610b2757612e418261092a8554614073565b602090601f831160011461314c57612e6f92915f9183610ba95750508160011b915f199060031b1c19161790565b90555b51805160028501916001600160401b038211610b2757612e968261092a8554614073565b602090601f83116001146130e957612ec492915f9183610b3b5750508160011b915f199060031b1c19161790565b90555b51805160038401916001600160401b038211610b2757612eeb8261092a8554614073565b602090601f8311600114613082579180612f1e9260049695945f92610b3b5750508160011b915f199060031b1c19161790565b90555b51910155612f2f8580614485565b600896919654600160401b811015610b2757806001612f539201600855600861405e565b919091610708576001600160401b038111610b2757612f76816109db8454614073565b5f601f8211600114612fee5792610a819592612fd383610a619a999794610a6a977f1ab7ed5376728789e25b0fb93d8bb11be04ae22c57bdb47ba3578088e28be6259d5f92612fe35750508160011b915f199060031b1c19161790565b90555b610a72610a588280614485565b013590508d806108ef565b601f19821690835f5260205f20915f5b81811061306a575083610a6a96937f1ab7ed5376728789e25b0fb93d8bb11be04ae22c57bdb47ba3578088e28be6259c610a819a9794610a619d9c9a9760019510613051575b505050811b019055612fd6565b01355f19600384901b60f8161c191690558c8080613044565b9192602060018192868f013581550194019201612ffe565b90601f19831691845f52815f20925f5b8181106130d15750916001939185600498979694106130b9575b505050811b019055612f21565b01515f1960f88460031b161c191690558b80806130ac565b92936020600181928786015181550195019301613092565b90601f19831691845f52815f20925f5b818110613134575090846001959493921061311c575b505050811b019055612ec7565b01515f1960f88460031b161c191690558b808061310f565b929360206001819287860151815501950193016130f9565b90601f19831691845f52815f20925f5b818110613197575090846001959493921061317f575b505050811b019055612e72565b01515f1960f88460031b161c191690558c8080613172565b9293602060018192878601518155019501930161315c565b90601f19831691885f52815f20925f5b8181106131fa57509084600195949392106131e2575b505050811b018555612e1d565b01515f1960f88460031b161c191690558c80806131d5565b929360206001819287860151815501950193016131bf565b60405162461bcd60e51b815260206004820152601960248201527f4661726d657220616c72656164792072656769737465726564000000000000006044820152606490fd5b3461031c57602080613268366142a7565b604051928184925191829101835e8101600281520301902061076181614138565b3461031c57602036600319011261031c57600435600e5481101561031c57600e5481101561071b57600e5f527fbb7b4a454dc3493923482f07822329ed19e8244eff582cc204f8554c3620c3fd016106f461031891614138565b3461031c575f36600319011261031c576020600a54604051908152f35b3461031c57602080613311366142a7565b604051928184925191829101835e8101600381520301902061076181614138565b3461031c57602036600319011261031c57600435600f5481101561031c57600f5481101561071b57600f5f527f8d1108e10bcb7c27dddfc02ed9d693a074039d026cf4ea4240b40f7d581ac802016106f461031891614138565b3461031c5761339a366141fc565b6133c460206133a98380614485565b91908260405193849283378101600381520301902054614073565b6135f8576133d28180614485565b602083929301916133e38382614485565b604083929301936133f48584614485565b97909260608501986134068a87614485565b95906080880196613417888a614485565b93909460a08b019b6134298d8d614485565b9890996040519b6134398d6140ab565b369061344492614262565b8b52369061345192614262565b60208a0152369061346192614262565b6040880152369061347192614262565b6060860152369061348192614262565b6080840152369061349192614262565b60a08201526134a08380614485565b90816040519283928337810160038152036020019020906134c091614506565b6134ca8280614485565b600b97919754600160401b811015610b27578060016134ee9201600b55600b61405e565b919091610708576001600160401b038111610b2757613511816109db8454614073565b5f98601f82116001146135765793611d4a610a819794611d419794611d1f85611d53967f053bb37f29d796f9131fd903e3a7693b6ac07da6cbcdf9b3927c65a93b93b1359f611d389f9e9b5f92611d6a5750508160011b915f199060031b1c19161790565b98601f19821690835f5260205f20915f5b8181106135e0575094611d419794600185611d389d9c99957f053bb37f29d796f9131fd903e3a7693b6ac07da6cbcdf9b3927c65a93b93b1359f611d4a96611d5399610a819f9c10611de057505050811b019055611d22565b91926020600181928f87013581550194019201613587565b60405162461bcd60e51b815260206004820152601d60248201527f57686f6c6573616c657220616c726561647920726567697374657265640000006044820152606490fd5b3461031c5761364b3661422f565b61365a60206110d38380614485565b613a23576111368161366f8161112d94614485565b6020830194916136839061110c8786614485565b916040820192835260206136978580614485565b91908260405193849283378101600481520301902091518051906001600160401b038211610b27576136cd8261118f8654614073565b602090601f83116001146139c0576136fb92915f91836113c45750508160011b915f199060031b1c19161790565b82555b51805160018301916001600160401b038211610b27576137228261092a8554614073565b602090601f83116001146139595791806137559260029695945f926112c45750508160011b915f199060031b1c19161790565b90555b0190518051906001600160401b038211610b275761377a8261092a8554614073565b602090601f83116001146138f6576137a892915f91836138eb5750508160011b915f199060031b1c19161790565b90555b6137b58180614485565b600c54600160401b811015610b27578060016137d69201600c55600c61405e565b929092610708576001600160401b038211610b27576137f98261092a8554614073565b5f90601f831160011461385d579261129c83610a6a97947f2986462e86647ac564b1c89c3c4873f6249af112062ab1fa845bf9908604b079999794610a81975f926138525750508160011b915f199060031b1c19161790565b013590508a806108ef565b601f19831691845f5260205f20925f5b8181106138d35750937f2986462e86647ac564b1c89c3c4873f6249af112062ab1fa845bf9908604b079989693610a81969360019383610a6a9b98106138ba57505050811b01905561129f565b01355f19600384901b60f8161c19169055898080611320565b9193602060018192878701358155019501920161386d565b0151905087806108ef565b90601f19831691845f52815f20925f5b8181106139415750908460019594939210613929575b505050811b0190556137ab565b01515f1960f88460031b161c1916905586808061391c565b92936020600181928786015181550195019301613906565b90601f19831691845f52815f20925f5b8181106139a8575091600193918560029897969410613990575b505050811b019055613758565b01515f1960f88460031b161c19169055898080613983565b92936020600181928786015181550195019301613969565b90601f19831691855f52815f20925f5b818110613a0b57509084600195949392106139f3575b505050811b0182556136fe565b01515f1960f88460031b161c191690558880806139e6565b929360206001819287860151815501950193016139d0565b60405162461bcd60e51b815260206004820152601b60248201527f52657461696c657220616c7265616479207265676973746572656400000000006044820152606490fd5b3461031c57613a76366141fc565b613aa06020613a858380614485565b91908260405193849283378101600781520301902054614073565b613cd457613aae8180614485565b60208392930191613abf8382614485565b60408392930193613ad08584614485565b9790926060850198613ae28a87614485565b95906080880196613af3888a614485565b93909460a08b019b613b058d8d614485565b9890996040519b613b158d6140ab565b3690613b2092614262565b8b523690613b2d92614262565b60208a01523690613b3d92614262565b60408801523690613b4d92614262565b60608601523690613b5d92614262565b60808401523690613b6d92614262565b60a0820152613b7c8380614485565b9081604051928392833781016007815203602001902090613b9c91614506565b613ba68280614485565b600f97919754600160401b811015610b2757806001613bca9201600f55600f61405e565b919091610708576001600160401b038111610b2757613bed816109db8454614073565b5f98601f8211600114613c525793611d4a610a819794611d419794611d1f85611d53967f8b27dc553408b28068949f2ae999ea2719a7b5bfd88cc531287e621ea5b2dd099f611d389f9e9b5f92611d6a5750508160011b915f199060031b1c19161790565b98601f19821690835f5260205f20915f5b818110613cbc575094611d419794600185611d389d9c99957f8b27dc553408b28068949f2ae999ea2719a7b5bfd88cc531287e621ea5b2dd099f611d4a96611d5399610a819f9c10611de057505050811b019055611d22565b91926020600181928f87013581550194019201613c63565b60405162461bcd60e51b815260206004820152601b60248201527f4578706f7274657220616c7265616479207265676973746572656400000000006044820152606490fd5b3461031c575f36600319011261031c576020600e54604051908152f35b3461031c57613d44366141fc565b613d6e6020613d538380614485565b91908260405193849283378101600281520301902054614073565b613fa257613d7c8180614485565b60208392930191613d8d8382614485565b60408392930193613d9e8584614485565b9790926060850198613db08a87614485565b95906080880196613dc1888a614485565b93909460a08b019b613dd38d8d614485565b9890996040519b613de38d6140ab565b3690613dee92614262565b8b523690613dfb92614262565b60208a01523690613e0b92614262565b60408801523690613e1b92614262565b60608601523690613e2b92614262565b60808401523690613e3b92614262565b60a0820152613e4a8380614485565b9081604051928392833781016002815203602001902090613e6a91614506565b613e748280614485565b600997919754600160401b811015610b2757806001613e989201600955600961405e565b919091610708576001600160401b038111610b2757613ebb816109db8454614073565b5f98601f8211600114613f205793611d4a610a819794611d419794611d1f85611d53967fc4fd9b7257693186fa3e36ed0aa9bf51aa4b34acd7ab95ada42a4a84db95c0949f611d389f9e9b5f92611d6a5750508160011b915f199060031b1c19161790565b98601f19821690835f5260205f20915f5b818110613f8a575094611d419794600185611d389d9c99957fc4fd9b7257693186fa3e36ed0aa9bf51aa4b34acd7ab95ada42a4a84db95c0949f611d4a96611d5399610a819f9c10611de057505050811b019055611d22565b91926020600181928f87013581550194019201613f31565b60405162461bcd60e51b815260206004820152601960248201527f4d696c6c657220616c72656164792072656769737465726564000000000000006044820152606490fd5b3461031c575f36600319011261031c576020600f54604051908152f35b3461031c57602036600319011261031c5760043560095481101561031c5760095481101561071b5760095f527f6e1540171b6c0c960b71a7020d9f60077f6af931a8bbf590da0223dacf75c7af016106f461031891614138565b805482101561071b575f5260205f2001905f90565b90600182811c921680156140a1575b602083101461408d57565b634e487b7160e01b5f52602260045260245ffd5b91607f1691614082565b60c081019081106001600160401b03821117610b2757604052565b606081019081106001600160401b03821117610b2757604052565b60a081019081106001600160401b03821117610b2757604052565b608081019081106001600160401b03821117610b2757604052565b90601f801991011681019081106001600160401b03821117610b2757604052565b9060405191825f82549261414b84614073565b80845293600181169081156141b65750600114614172575b5061417092500383614117565b565b90505f9291925260205f20905f915b81831061419a575050906020614170928201015f614163565b6020919350806001915483858901015201910190918492614181565b90506020925061417094915060ff191682840152151560051b8201015f614163565b805180835260209291819084018484015e5f828201840152601f01601f1916010190565b602060031982011261031c57600435906001600160401b03821161031c5760c090829003600319011261031c5760040190565b602060031982011261031c57600435906001600160401b03821161031c57606090829003600319011261031c5760040190565b9291926001600160401b038211610b27576040519161428b601f8201601f191660200184614117565b82948184528183011161031c578281602093845f960137010152565b602060031982011261031c57600435906001600160401b03821161031c578060238301121561031c578160246142e293600401359101614262565b90565b9491936143286143449461431a6142e2999761430c6143369660c08c5260c08c01906141d8565b908a820360208c01526141d8565b9088820360408a01526141d8565b9086820360608801526141d8565b9084820360808601526141d8565b9160a08184039101526141d8565b602060031982011261031c57600435906001600160401b03821161031c5760a090829003600319011261031c5760040190565b602060031982011261031c57600435906001600160401b03821161031c57608090829003600319011261031c5760040190565b90602060031983011261031c576004356001600160401b03811161031c578260238201121561031c578060040135926001600160401b03841161031c576024848301011161031c576024019190565b6142e29160a061447461446261445061443e61442c875160c0885260c08801906141d8565b602088015187820360208901526141d8565b604087015186820360408801526141d8565b606086015185820360608701526141d8565b608085015184820360808601526141d8565b9201519060a08184039101526141d8565b903590601e198136030182121561031c57018035906001600160401b03821161031c5760200191813603831361031c57565b601f82116144c457505050565b5f5260205f20906020601f840160051c830193106144fc575b601f0160051c01905b8181106144f1575050565b5f81556001016144e6565b90915081906144dd565b9181519283516001600160401b038111610b2757614528816109db8454614073565b602094601f821160011461490d576145599293949582915f92610a865750508160011b915f199060031b1c19161790565b81555b6001810160208401518051906001600160401b038211610b27576145848261092a8554614073565b602090601f83116001146148aa576145b292915f9183610a865750508160011b915f199060031b1c19161790565b90555b6002810160408401518051906001600160401b038211610b27576145dd8261092a8554614073565b602090601f83116001146148475761460b92915f9183610a865750508160011b915f199060031b1c19161790565b90555b6003810160608401518051906001600160401b038211610b27576146368261092a8554614073565b602090601f83116001146147e45761466492915f9183610a865750508160011b915f199060031b1c19161790565b90555b6004810160808401518051906001600160401b038211610b275761468f8261092a8554614073565b602090601f831160011461477b578260a09593600595936146c4935f92610a865750508160011b915f199060031b1c19161790565b90555b019201519182516001600160401b038111610b27576146ea816109db8454614073565b6020601f821160011461471d5781906147199394955f92610a865750508160011b915f199060031b1c19161790565b9055565b601f19821690835f52805f20915f5b8181106147635750958360019596971061474b575b505050811b019055565b01515f1960f88460031b161c191690555f8080614741565b9192602060018192868b01518155019401920161472c565b90601f19831691845f52815f20925f5b8181106147cc575092600192859260a0989660059896106147b4575b505050811b0190556146c7565b01515f1960f88460031b161c191690555f80806147a7565b9293602060018192878601518155019501930161478b565b90601f19831691845f52815f20925f5b81811061482f5750908460019594939210614817575b505050811b019055614667565b01515f1960f88460031b161c191690555f808061480a565b929360206001819287860151815501950193016147f4565b90601f19831691845f52815f20925f5b818110614892575090846001959493921061487a575b505050811b01905561460e565b01515f1960f88460031b161c191690555f808061486d565b92936020600181928786015181550195019301614857565b90601f19831691845f52815f20925f5b8181106148f557509084600195949392106148dd575b505050811b0190556145b5565b01515f1960f88460031b161c191690555f80806148d0565b929360206001819287860151815501950193016148ba565b601f19821695835f52805f20915f5b8881106149565750836001959697981061493e575b505050811b01815561455c565b01515f1960f88460031b161c191690555f8080614931565b9192602060018192868501518155019401920161491c565b908060209392818452848401375f828201840152601f01601f1916010190565b9a989693956149ca8c6142e29e9c986149f49b966149bc6149e69a966149d89860c0865260c086019161496e565b92602081850391015261496e565b8c810360408e01529161496e565b9189830360608b015261496e565b91868303608088015261496e565b9260a081850391015261496e565b94929093614a206142e29795614a2e9460608952606089019161496e565b91868303602088015261496e565b92604081850391015261496e565b99989793614a7f93614a7191614a63614a8d999460809b99968f60a090818152019161496e565b8d810360208f01529161496e565b918a830360408c015261496e565b91878303606089015261496e565b930152565b969492614ad094614ab4614ac2936142e29b999560808c5260808c019161496e565b9189830360208b015261496e565b91868303604088015261496e565b92606081850391015261496e565b60405190614aeb826140ab565b606060a08382815282602082015282604082015282808201528260808201520152565b15614b1557565b60405162461bcd60e51b815260206004820152601060248201526f135a5b1b195c881b9bdd08199bdd5b9960821b6044820152606490fd5b90604051614b5a816140ab565b60a0614bb860058395614b6c81614138565b8552614b7a60018201614138565b6020860152614b8b60028201614138565b6040860152614b9c60038201614138565b6060860152614bad60048201614138565b608086015201614138565b910152565b15614bc457565b60405162461bcd60e51b815260206004820152601460248201527315da1bdb195cd85b195c881b9bdd08199bdd5b9960621b6044820152606490fd5b15614c0757565b60405162461bcd60e51b815260206004820152601060248201526f109c995dd95c881b9bdd08199bdd5b9960821b6044820152606490fd5b15614c4657565b60405162461bcd60e51b8152602060048201526014602482015273105b9a5b585b119bdbd9081b9bdd08199bdd5b9960621b6044820152606490fd5b15614c8957565b60405162461bcd60e51b815260206004820152601360248201527210dbdb1b1958dd1bdc881b9bdd08199bdd5b99606a1b6044820152606490fd5b15614ccb57565b60405162461bcd60e51b815260206004820152601260248201527114995d185a5b195c881b9bdd08199bdd5b9960721b6044820152606490fd5b15614d0c57565b60405162461bcd60e51b8152602060048201526012602482015271115e1c1bdc9d195c881b9bdd08199bdd5b9960721b6044820152606490fd5b15614d4d57565b60405162461bcd60e51b815260206004820152601060248201526f11985c9b595c881b9bdd08199bdd5b9960821b6044820152606490fdfea2646970667358221220152947dc4b022229a18d1f31a8e7599913fa1efd8f78143ebfa70c7df038dcd164736f6c634300081c0033",
  "linkReferences": {},
  "deployedLinkReferences": {},
  "immutableReferences": {},
  "inputSourceName": "project/contracts/UserAccounts.sol",
  "buildInfoId": "solc-0_8_28-7c0c82ff201bf9efc2edf533ede4699968b5a3fe"
}